S013000046575F4D454457617463682E7372656348
S11300000C942A000C943F000C943F000C943F0085
S11300100C943F000C943F000C943F000C943F0060
S11300200C943F000C943F000C943F000C943F0050
S11300300C943F000C943F000C943F000C943F0040
S11300400C943F000C943F000C943F000C94490026
S11300500C943F0011241FBECFE5D8E0DEBFCDBF16
S113006010E0A0E6B0E0E0E3F3E002C005900D92FA
S1130070A239B107D9F70E944A010C9496010C9455
S113008000008AB384608ABB9BB384E089278BBB5E
S113009008951F920F920FB60F9211248F9386B773
S11300A0806886BF8F910F900FBE0F901F90189598
S11300B084B3836084BB82E080B90895EF92FF9299
S11300C00F931F93CF93DF93C82F7B018A0184EA98
S11300D086BF06B607FEFDCF81B1887F883021F048
S11300E088E090E00E944100C3B984E886BF06B668
S11300F007FEFDCF81B1887F883121F088E190E04F
S11301000E944100C0E0D0E015C0FE01EE0FFF1FC9
S1130110EE0DFF1D808183B984E886BF06B607FE15
S1130120FDCF81B1887F883221F088E290E00E947F
S113013041002196C017D10740F386B7846986BF72
S1130140DF91CF911F910F91FF90EF900895CF937E
S1130150DF93CDB7DEB76C970FB6F894DEBF0FBE52
S1130160CDBFDC01AB01440F551F4E30510530F5B6
S113017020E030E019C0F901EE0FFF1F61E070E0EC
S11301806C0F7D1FE60FF71F80E890E0918380835A
S1130190F90131968D919D91EE0FFF1FE60FF71F28
S11301A0918380832E5F3F4F2417350720F3BE01D0
S11301B06F5F7F4F88E790E00E945E006C960FB6F9
S11301C0F894DEBF0FBECDBFDF91CF910895CF93DA
S11301D0DF9300D000D0CDB7DEB720E430E03A831F
S11301E029839C838B8342E050E0BE016F5F7F4F85
S11301F088E790E00E945E000F900F900F900F90A0
S1130200DF91CF910895CF93DF9300D000D000D039
S1130210CDB7DEB78DE890E09A83898384E190E0DE
S11302209C838B838FEA90E09E838D8362E070E0F1
S1130230CE0101960E94A70061E070E0CE01059610
S11302400E94A70026960FB6F894DEBF0FBECDBF5E
S1130250DF91CF910895EF92FF920F931F93CF9365
S1130260DF937C018B01C0E0D0E00AC0FE01EE0FF9
S1130270FF1FEE0DFF1D808191810E94E7002196F2
S1130280C017D10798F3DF91CF911F910F91FF9081
S1130290EF900895CF93DF93CDB7DEB7C456D1095D
S11302A00FB6F894DEBF0FBECDBF82E3E0E6F0E008
S11302B0DE01119601900D928A95E1F7FE01F39605
S11302C082E3DF011D928A95E9F78FEF90E09CAB02
S11302D08BAB8AB381608ABB8BB382608BBB0E9479
S11302E058000E94030169E170E0CE0101960E946A
S11302F02B019BB381E089278BBBBFEF24E38CE008
S1130300B15020408040E1F700C0000069E170E096
S1130310CE01C3960E942B019FEFA4E3BCE0915051
S1130320A040B040E1F700C00000DDCFF894FFCF5B
S1130330FF00FF00FF00FF00FF00FF00FF00FF00C1
S1130340FF00FF00FF00FF00FF00FF00FF00FF00B1
S1130350FF00FF00FF00FF00FF00FF00FF00FF00A1
S1050360FF0098
S9030000FC
