:100000000C942A000C943F000C943F000C943F0089
:100010000C943F000C943F000C943F000C943F0064
:100020000C943F000C943F000C943F000C943F0054
:100030000C943F000C943F000C943F000C943F0044
:100040000C943F000C943F000C943F000C94410032
:100050000C943F0011241FBECFE5D8E0DEBFCDBF1A
:1000600010E0A0E6B0E0E0E2F2E002C005900D9200
:10007000A239B107D9F70E94DD000C940E010C944F
:1000800000001F920F920FB60F9211248F9386B724
:10009000806886BF8F910F900FBE0F901F901895AC
:1000A00084B3836084BB88E080B9089596B7946A6E
:1000B00096BF06B607FEFDCF91B183B986B78468B7
:1000C00086BF06B607FEFDCF81B180E090E012C08A
:1000D000FC01EE0FFF1FE60FF71F208123B926B7A3
:1000E000246826BF06B607FEFDCF21B1287F28323F
:1000F00021F401968417950758F386B7846986BF63
:100100000895CF93DF9300D000D0CDB7DEB720E8BD
:1001100030E03A8329839C838B8342E050E0BE0128
:100120006F5F7F4F88E790E00E9456000F900F901E
:100130000F900F90DF91CF910895CF93DF9300D070
:1001400000D0CDB7DEB720E430E03A8329839C832A
:100150008B8342E050E0BE016F5F7F4F88E790E005
:100160000E9456000F900F900F900F90DF91CF914B
:1001700008958FEA90E00E9481000895EF92FF9227
:100180000F931F93CF93DF937C018B01C0E0D0E0EE
:100190000AC0FE01EE0FFF1FEE0DFF1D8081918151
:1001A0000E949D002196C017D10798F3DF91CF914F
:1001B0001F910F91FF90EF900895CF93DF93CDB7EC
:1001C000DEB7E2970FB6F894DEBF0FBECDBF82E375
:1001D000E0E6F0E0DE01119601900D928A95E1F7DC
:1001E0008AB381608ABB8BB382608BBB0E94500054
:1001F0000E94B90069E170E0CE0101960E94BE0044
:100200009BB381E089278BBB2FEF84E39CE02150D7
:1002100080409040E1F700C00000ECCFF894FFCFA1
:10022000FF00FF00FF00FF00FF00FF00FF00FF00D6
:10023000FF00FF00FF00FF00FF00FF00FF00FF00C6
:10024000FF00FF00FF00FF00FF00FF00FF00FF00B6
:02025000FF00AD
:00000001FF
