:100000000C942A000C943F000C943F000C943F0089
:100010000C943F000C943F000C943F000C943F0064
:100020000C943F000C943F000C943F000C943F0054
:100030000C943F000C943F000C943F000C943F0044
:100040000C943F000C943F000C943F000C943F0034
:100050000C943F0011241FBECFE5D8E0DEBFCDBF1A
:1000600010E0A0E6B0E0E8E9F3E002C005900D92F0
:10007000A239B107D9F70E947E010C94CA010C94F1
:1000800000008032910561F08033910561F0883481
:10009000910561F08835910561F481E090E0089563
:1000A00081E090E0089581E090E0089581E090E0A3
:1000B000089580E090E0089584B3836084BB82E07B
:1000C00080B90895CF92DF92EF92FF920F931F9322
:1000D000CF93DF9300D0CDB7DEB7182F6B017A0135
:1000E0001A82198284EA86BF06B607FEFDCF81B167
:1000F000887F90E00E9441009A83898389819A8158
:10010000019729F484E986BF8EEE90E03EC013B9D2
:1001100084E886BF06B607FEFDCF81B1887F90E0F8
:100120000E9441009A83898389819A81019721F5F0
:1001300084E986BF8EEE90E028C0F801EE0FFF1F25
:10014000EC0DFD1D808183B984E886BF06B607FEED
:10015000FDCF81B1887F90E00E9441009A8389831E
:1001600089819A81019729F484E986BF8EEE90E017
:100170000CC00F5F1F4F02C000E010E00E151F05FE
:10018000E0F284E986BF8CEC90E00F900F90DF9155
:10019000CF911F910F91FF90EF90DF90CF90089536
:1001A0000F931F93CF93DF93CDB7DEB76C970FB646
:1001B000F894DEBF0FBECDBFDC018B01000F111F15
:1001C0000E30110550F520E030E019C0F901EE0FB6
:1001D000FF1F41E050E04C0F5D1FE40FF51F80E86A
:1001E00090E091838083F90131968D919D91EE0F7E
:1001F000FF1FE40FF51F918380832E5F3F4F201771
:10020000310720F3A801BE016F5F7F4F88E790E0C0
:100210000E9462008C3C9105A9F76C960FB6F89489
:10022000DEBF0FBECDBFDF91CF911F910F9108951B
:10023000CF93DF9300D000D0CDB7DEB720E430E01D
:100240003A8329839C838B8342E050E0BE016F5F39
:100250007F4F88E790E00E9462008C3C9105A1F7F7
:100260000F900F900F900F90DF91CF910895CF9343
:10027000DF9300D000D000D0CDB7DEB78DE890E09E
:100280009A83898384E190E09C838B838FEA90E05A
:100290009E838D8362E070E0CE0101960E94D000C3
:1002A00061E070E0CE0105960E94D00026960FB660
:1002B000F894DEBF0FBECDBFDF91CF910895EF92CE
:1002C000FF920F931F93CF93DF937C018B01C0E0CC
:1002D000D0E00AC0FE01EE0FFF1FEE0DFF1D808172
:1002E00091810E9418012196C017D10798F3DF91E0
:1002F000CF911F910F91FF90EF900895CF93DF93CF
:10030000CDB7DEB7C456D1090FB6F894DEBF0FBE25
:10031000CDBF82E3E0E6F0E0DE01119601900D92A0
:100320008A95E1F7FE01F39682E3DF011D928A953B
:10033000E9F78FEF90E09CAB8BAB8AB381608ABB0F
:100340008BB382608BBB0E945C000E94370169E125
:1003500070E0CE0101960E945F019BB381E0892786
:100360008BBBBFEF24E38CE0B15020408040E1F72D
:1003700000C0000069E170E0CE01C3960E945F01F9
:100380009FEFA4E3BCE09150A040B040E1F700C073
:080390000000DDCFF894FFCF5F
:10039800FF00FF00FF00FF00FF00FF00FF00FF005D
:1003A800FF00FF00FF00FF00FF00FF00FF00FF004D
:1003B800FF00FF00FF00FF00FF00FF00FF00FF003D
:0203C800FF0034
:00000001FF
