:100000000C942A000C9434000C9434000C943400AA
:100010000C9434000C9434000C9434000C94340090
:100020000C9434000C9434000C9434000C94340080
:100030000C9434000C9434000C9434000C94340070
:100040000C9434000C9434000C9434000C9436005E
:100050000C94340011241FBECFE5D8E0DEBFCDBF25
:100060000E9483000C9416010C9400001F920F92C2
:100070000FB60F9211248F9386B7806886BF8F9139
:100080000F900FBE0F901F90189584B3836084BBB0
:1000900082E080B986B7816086BF7894089596B76C
:1000A000946A96BF06B607FEFDCF96B7906896BFD6
:1000B00091B183B986B7846886BF06B607FEFDCFC7
:1000C00086B7806886BF81B180E090E015C0FC01F2
:1000D000EE0FFF1FE60FF71F208123B926B7246814
:1000E00026BF06B607FEFDCF26B7206826BF21B182
:1000F000287F283221F401968417950740F386B7AC
:10010000846986BF0895CF93DF93CDB7DEB7C85C0F
:10011000D1090FB6F894DEBF0FBECDBF8AB382609F
:100120008ABBFE01319688ECDF011D928A95E9F7C2
:1001300081EA90E09A8389830E9445009BB382E024
:1001400098279BBBBFEF24E33CE0B15020403040F8
:10015000E1F700C000009BB398279BBB9FEFA4E38F
:10016000BCE09150A040B040E1F700C000009BB35C
:1001700098279BBB2FEF34E39CE021503040904008
:10018000E1F700C000009BB398279BBBAFEFB4E33F
:100190002CE0A150B0402040E1F700C000009BB32C
:1001A00098279BBB3FEF94E3ACE031509040A040D8
:1001B000E1F700C000009BB398279BBBBFEF24E38F
:1001C0003CE0B15020403040E1F700C000009BB35C
:1001D00098279BBB9FEFA4E3BCE09150A040B040A8
:1001E000E1F700C000009BB389278BBB2FEF34E3FE
:1001F0008CE0215030408040E1F700C0000042E038
:1002000050E0BE016F5F7F4F82E590E00E944F009B
:100210009BB382E089278BBB9FEFA4E3BCE09150A6
:10022000A040B040E1F700C00000E9CFF894FFCF54
:00000001FF
